{"abi":[{"type":"constructor","inputs":[],"stateMutability":"nonpayable"},{"type":"function","name":"addIssuer","inputs":[{"name":"issuer","type":"address","internalType":"address"},{"name":"name","type":"string","internalType":"string"}],"outputs":[],"stateMutability":"nonpayable"},{"type":"function","name":"credentialIssuers","inputs":[{"name":"","type":"bytes32","internalType":"bytes32"}],"outputs":[{"name":"","type":"address","internalType":"address"}],"stateMutability":"view"},{"type":"function","name":"credentials","inputs":[{"name":"","type":"bytes32","internalType":"bytes32"}],"outputs":[{"name":"","type":"bool","internalType":"bool"}],"stateMutability":"view"},{"type":"function","name":"getIssuerInfo","inputs":[{"name":"issuer","type":"address","internalType":"address"}],"outputs":[{"name":"isTrusted","type":"bool","internalType":"bool"},{"name":"name","type":"string","internalType":"string"}],"stateMutability":"view"},{"type":"function","name":"isCredentialValid","inputs":[{"name":"credentialHash","type":"bytes32","internalType":"bytes32"}],"outputs":[{"name":"","type":"bool","internalType":"bool"}],"stateMutability":"view"},{"type":"function","name":"issuerNames","inputs":[{"name":"","type":"address","internalType":"address"}],"outputs":[{"name":"","type":"string","internalType":"string"}],"stateMutability":"view"},{"type":"function","name":"owner","inputs":[],"outputs":[{"name":"","type":"address","internalType":"address"}],"stateMutability":"view"},{"type":"function","name":"registerCredential","inputs":[{"name":"credentialHash","type":"bytes32","internalType":"bytes32"},{"name":"user","type":"address","internalType":"address"}],"outputs":[],"stateMutability":"nonpayable"},{"type":"function","name":"removeIssuer","inputs":[{"name":"issuer","type":"address","internalType":"address"}],"outputs":[],"stateMutability":"nonpayable"},{"type":"function","name":"revokeCredential","inputs":[{"name":"credentialHash","type":"bytes32","internalType":"bytes32"}],"outputs":[],"stateMutability":"nonpayable"},{"type":"function","name":"revokedCredentials","inputs":[{"name":"","type":"bytes32","internalType":"bytes32"}],"outputs":[{"name":"","type":"bool","internalType":"bool"}],"stateMutability":"view"},{"type":"function","name":"trustedIssuers","inputs":[{"name":"","type":"address","internalType":"address"}],"outputs":[{"name":"","type":"bool","internalType":"bool"}],"stateMutability":"view"},{"type":"event","name":"CredentialIssued","inputs":[{"name":"user","type":"address","indexed":true,"internalType":"address"},{"name":"credentialHash","type":"bytes32","indexed":true,"internalType":"bytes32"},{"name":"issuer","type":"address","indexed":true,"internalType":"address"},{"name":"timestamp","type":"uint256","indexed":false,"internalType":"uint256"}],"anonymous":false},{"type":"event","name":"CredentialRevoked","inputs":[{"name":"credentialHash","type":"bytes32","indexed":true,"internalType":"bytes32"},{"name":"issuer","type":"address","indexed":true,"internalType":"address"},{"name":"timestamp","type":"uint256","indexed":false,"internalType":"uint256"}],"anonymous":false},{"type":"event","name":"IssuerAdded","inputs":[{"name":"issuer","type":"address","indexed":true,"internalType":"address"},{"name":"name","type":"string","indexed":false,"internalType":"string"}],"anonymous":false},{"type":"event","name":"IssuerRemoved","inputs":[{"name":"issuer","type":"address","indexed":true,"internalType":"address"}],"anonymous":false}],"bytecode":{"object":"0x608060405234801561000f575f80fd5b50600580546001600160a01b03191633179055610ba88061002f5f395ff3fe608060405234801561000f575f80fd5b50600436106100b1575f3560e01c80636dc158eb1161006e5780636dc158eb146101975780638da5cb5b146101aa5780638fc0859a146101bd57806392c54daf146101d0578063ca6eec78146101f2578063e7af3bc414610205575f80fd5b80631c8294d6146100b5578063249b92a0146100fa578063299d03481461012c57806347bc70931461014e578063515deca4146101635780635e9aab7014610176575b5f80fd5b6100dd6100c336600461086d565b60016020525f90815260409020546001600160a01b031681565b6040516001600160a01b0390911681526020015b60405180910390f35b61011c61010836600461086d565b60026020525f908152604090205460ff1681565b60405190151581526020016100f1565b61011c61013a36600461086d565b5f6020819052908152604090205460ff1681565b61016161015c36600461089f565b610225565b005b6101616101713660046108bf565b610317565b61018961018436600461089f565b610495565b6040516100f192919061092c565b61011c6101a536600461086d565b610553565b6005546100dd906001600160a01b031681565b6101616101cb366004610962565b610584565b61011c6101de36600461089f565b60036020525f908152604090205460ff1681565b61016161020036600461086d565b6106a6565b61021861021336600461089f565b6107d6565b6040516100f19190610a1e565b6005546001600160a01b031633146102705760405162461bcd60e51b81526020600482015260096024820152682737ba1037bbb732b960b91b60448201526064015b60405180910390fd5b6001600160a01b0381165f9081526003602052604090205460ff166102cf5760405162461bcd60e51b8152602060048201526015602482015274125cdcdd595c88191bd95cc81b9bdd08195e1a5cdd605a1b6044820152606401610267565b6001600160a01b0381165f81815260036020526040808220805460ff19169055517faf66545c919a3be306ee446d8f42a9558b5b022620df880517bc9593ec0f2d529190a250565b335f9081526003602052604090205460ff1661036a5760405162461bcd60e51b81526020600482015260126024820152712737ba103a393ab9ba32b21034b9b9bab2b960711b6044820152606401610267565b5f8281526020819052604090205460ff16156103c85760405162461bcd60e51b815260206004820152601960248201527f43726564656e7469616c20616c726561647920657869737473000000000000006044820152606401610267565b5f8281526002602052604090205460ff161561041f5760405162461bcd60e51b815260206004820152601660248201527510dc9959195b9d1a585b081dd85cc81c995d9bdad95960521b6044820152606401610267565b5f82815260208181526040808320805460ff1916600190811790915582529182902080546001600160a01b03191633908117909155915142815284916001600160a01b038516917f9ee2f4aac460d2e94dee0fbfad39a4c479b313c13315423e771691b7f8b249ef910160405180910390a45050565b6001600160a01b0381165f9081526003602090815260408083205460049092528220805460609260ff16919081906104cc90610a30565b80601f01602080910402602001604051908101604052809291908181526020018280546104f890610a30565b80156105435780601f1061051a57610100808354040283529160200191610543565b820191905f5260205f20905b81548152906001019060200180831161052657829003601f168201915b5050505050905091509150915091565b5f8181526020819052604081205460ff16801561057e57505f8281526002602052604090205460ff16155b92915050565b6005546001600160a01b031633146105ca5760405162461bcd60e51b81526020600482015260096024820152682737ba1037bbb732b960b91b6044820152606401610267565b6001600160a01b0382165f9081526003602052604090205460ff161561062a5760405162461bcd60e51b815260206004820152601560248201527449737375657220616c72656164792065786973747360581b6044820152606401610267565b6001600160a01b0382165f908152600360209081526040808320805460ff19166001179055600490915290206106608282610ab6565b50816001600160a01b03167fbffc9e6add894cdc9f3243f85aaf5e65d6f6284f63658ea53ea9dd241e4276d88260405161069a9190610a1e565b60405180910390a25050565b5f8181526020819052604090205460ff166107035760405162461bcd60e51b815260206004820152601960248201527f43726564656e7469616c20646f6573206e6f74206578697374000000000000006044820152606401610267565b5f818152600160205260409020546001600160a01b031633148061073157506005546001600160a01b031633145b61077d5760405162461bcd60e51b815260206004820152601860248201527f4e6f7420617574686f72697a656420746f207265766f6b6500000000000000006044820152606401610267565b5f8181526002602052604090819020805460ff1916600117905551339082907f80d4746828447d65eceb938c7f9d85fbeb232fe7819d5209ed452b3940f8904b906107cb9042815260200190565b60405180910390a350565b60046020525f9081526040902080546107ee90610a30565b80601f016020809104026020016040519081016040528092919081815260200182805461081a90610a30565b80156108655780601f1061083c57610100808354040283529160200191610865565b820191905f5260205f20905b81548152906001019060200180831161084857829003601f168201915b505050505081565b5f6020828403121561087d575f80fd5b5035919050565b80356001600160a01b038116811461089a575f80fd5b919050565b5f602082840312156108af575f80fd5b6108b882610884565b9392505050565b5f80604083850312156108d0575f80fd5b823591506108e060208401610884565b90509250929050565b5f81518084525f5b8181101561090d576020818501810151868301820152016108f1565b505f602082860101526020601f19601f83011685010191505092915050565b8215158152604060208201525f61094660408301846108e9565b949350505050565b634e487b7160e01b5f52604160045260245ffd5b5f8060408385031215610973575f80fd5b61097c83610884565b9150602083013567ffffffffffffffff80821115610998575f80fd5b818501915085601f8301126109ab575f80fd5b8135818111156109bd576109bd61094e565b604051601f8201601f19908116603f011681019083821181831017156109e5576109e561094e565b816040528281528860208487010111156109fd575f80fd5b826020860160208301375f6020848301015280955050505050509250929050565b602081525f6108b860208301846108e9565b600181811c90821680610a4457607f821691505b602082108103610a6257634e487b7160e01b5f52602260045260245ffd5b50919050565b601f821115610ab1575f81815260208120601f850160051c81016020861015610a8e5750805b601f850160051c820191505b81811015610aad57828155600101610a9a565b5050505b505050565b815167ffffffffffffffff811115610ad057610ad061094e565b610ae481610ade8454610a30565b84610a68565b602080601f831160018114610b17575f8415610b005750858301515b5f19600386901b1c1916600185901b178555610aad565b5f85815260208120601f198616915b82811015610b4557888601518255948401946001909101908401610b26565b5085821015610b6257878501515f19600388901b60f8161c191681555b5050505050600190811b0190555056fea2646970667358221220d11f384689bc682466a6e711d45c95a07932b6ac5ea70b1064c7e5386b10205064736f6c63430008140033","linkReferences":{}},"methodIdentifiers":{"addIssuer(address,string)":"8fc0859a","credentialIssuers(bytes32)":"1c8294d6","credentials(bytes32)":"299d0348","getIssuerInfo(address)":"5e9aab70","isCredentialValid(bytes32)":"6dc158eb","issuerNames(address)":"e7af3bc4","owner()":"8da5cb5b","registerCredential(bytes32,address)":"515deca4","removeIssuer(address)":"47bc7093","revokeCredential(bytes32)":"ca6eec78","revokedCredentials(bytes32)":"249b92a0","trustedIssuers(address)":"92c54daf"},"id":21}