{"abi":[{"type":"constructor","inputs":[{"name":"_zkVerifier","type":"address","internalType":"address"},{"name":"_credentialRegistry","type":"address","internalType":"address"}],"stateMutability":"nonpayable"},{"type":"function","name":"checkAccess","inputs":[{"name":"user","type":"address","internalType":"address"}],"outputs":[{"name":"","type":"bool","internalType":"bool"}],"stateMutability":"view"},{"type":"function","name":"credentialRegistry","inputs":[],"outputs":[{"name":"","type":"address","internalType":"contract CredentialRegistry"}],"stateMutability":"view"},{"type":"function","name":"getRequirements","inputs":[{"name":"protocol","type":"address","internalType":"address"}],"outputs":[{"name":"minAge","type":"uint256","internalType":"uint256"},{"name":"allowedJurisdictions","type":"uint256[]","internalType":"uint256[]"},{"name":"requireAccredited","type":"bool","internalType":"bool"}],"stateMutability":"view"},{"type":"function","name":"hasAccess","inputs":[{"name":"","type":"address","internalType":"address"},{"name":"","type":"address","internalType":"address"}],"outputs":[{"name":"","type":"bool","internalType":"bool"}],"stateMutability":"view"},{"type":"function","name":"protocolRequirements","inputs":[{"name":"","type":"address","internalType":"address"}],"outputs":[{"name":"minAge","type":"uint256","internalType":"uint256"},{"name":"requireAccredited","type":"bool","internalType":"bool"},{"name":"isSet","type":"bool","internalType":"bool"}],"stateMutability":"view"},{"type":"function","name":"revokeAccess","inputs":[{"name":"user","type":"address","internalType":"address"}],"outputs":[],"stateMutability":"nonpayable"},{"type":"function","name":"setRequirements","inputs":[{"name":"minAge","type":"uint256","internalType":"uint256"},{"name":"allowedJurisdictions","type":"uint256[]","internalType":"uint256[]"},{"name":"requireAccredited","type":"bool","internalType":"bool"}],"outputs":[],"stateMutability":"nonpayable"},{"type":"function","name":"userCredentials","inputs":[{"name":"","type":"address","internalType":"address"},{"name":"","type":"address","internalType":"address"}],"outputs":[{"name":"","type":"bytes32","internalType":"bytes32"}],"stateMutability":"view"},{"type":"function","name":"verifyAndGrantAccess","inputs":[{"name":"a","type":"uint256[2]","internalType":"uint256[2]"},{"name":"b","type":"uint256[2][2]","internalType":"uint256[2][2]"},{"name":"c","type":"uint256[2]","internalType":"uint256[2]"},{"name":"publicSignals","type":"uint256[13]","internalType":"uint256[13]"},{"name":"credentialHash","type":"bytes32","internalType":"bytes32"},{"name":"user","type":"address","internalType":"address"}],"outputs":[],"stateMutability":"nonpayable"},{"type":"function","name":"zkVerifier","inputs":[],"outputs":[{"name":"","type":"address","internalType":"contract IZKVerifier"}],"stateMutability":"view"},{"type":"event","name":"AccessGranted","inputs":[{"name":"user","type":"address","indexed":true,"internalType":"address"},{"name":"protocol","type":"address","indexed":true,"internalType":"address"},{"name":"credentialHash","type":"bytes32","indexed":false,"internalType":"bytes32"},{"name":"timestamp","type":"uint256","indexed":false,"internalType":"uint256"}],"anonymous":false},{"type":"event","name":"AccessRevoked","inputs":[{"name":"user","type":"address","indexed":true,"internalType":"address"},{"name":"protocol","type":"address","indexed":true,"internalType":"address"},{"name":"timestamp","type":"uint256","indexed":false,"internalType":"uint256"}],"anonymous":false},{"type":"event","name":"RequirementsSet","inputs":[{"name":"protocol","type":"address","indexed":true,"internalType":"address"},{"name":"minAge","type":"uint256","indexed":false,"internalType":"uint256"},{"name":"allowedJurisdictions","type":"uint256[]","indexed":false,"internalType":"uint256[]"},{"name":"requireAccredited","type":"bool","indexed":false,"internalType":"bool"}],"anonymous":false}],"bytecode":{"object":"0x60c060405234801561000f575f80fd5b5060405161104538038061104583398101604081905261002e91610060565b6001600160a01b039182166080521660a052610091565b80516001600160a01b038116811461005b575f80fd5b919050565b5f8060408385031215610071575f80fd5b61007a83610045565b915061008860208401610045565b90509250929050565b60805160a051610f856100c05f395f81816101ca01526105fb01525f818161020901526107b70152610f855ff3fe608060405234801561000f575f80fd5b506004361061009b575f3560e01c806385e685311161006357806385e685311461019f578063b84ec6c2146101b2578063b948c3d4146101c5578063d6df096d14610204578063e89e04081461022b575f80fd5b80631709ef071461009f5780631e0daf7b146100e1578063390e4914146101035780633ea79fd714610152578063466a014614610167575b5f80fd5b6100cc6100ad366004610ac4565b600160209081525f928352604080842090915290825290205460ff1681565b60405190151581526020015b60405180910390f35b6100f46100ef366004610af5565b610263565b6040516100d893929190610b15565b610135610111366004610af5565b5f602081905290815260409020805460029091015460ff8082169161010090041683565b6040805193845291151560208401521515908201526060016100d8565b610165610160366004610bf5565b610320565b005b6100cc610175366004610af5565b335f9081526001602090815260408083206001600160a01b03949094168352929052205460ff1690565b6101656101ad366004610af5565b610437565b6101656101c0366004610d69565b610508565b6101ec7f000000000000000000000000000000000000000000000000000000000000000081565b6040516001600160a01b0390911681526020016100d8565b6101ec7f000000000000000000000000000000000000000000000000000000000000000081565b610255610239366004610ac4565b600260209081525f928352604080842090915290825290205481565b6040519081526020016100d8565b6001600160a01b0381165f9081526020818152604080832081516080810183528154815260018201805484518187028101870190955280855260609587958695938583019391929091908301828280156102da57602002820191905f5260205f20905b8154815260200190600101908083116102c6575b50505091835250506002919091015460ff808216151560208085019190915261010090920416151560409283015282519083015192909101519097919650945092505050565b600a825111156103705760405162461bcd60e51b8152602060048201526016602482015275546f6f206d616e79206a7572697364696374696f6e7360501b60448201526064015b60405180910390fd5b60408051608081018252848152602080820185815284151583850152600160608401819052335f908152808452949094208351815590518051939491936103bf93928501929190910190610a2d565b506040828101516002909201805460609094015115156101000261ff00199315159390931661ffff1990941693909317919091179091555133907f1aa287419d542b648dc777136377bb2f747ca8aa3c362fb033a50277160f48229061042a90869086908690610b15565b60405180910390a2505050565b335f9081526001602090815260408083206001600160a01b038516845290915290205460ff166104a95760405162461bcd60e51b815260206004820152601960248201527f5573657220646f6573206e6f74206861766520616363657373000000000000006044820152606401610367565b335f8181526001602090815260408083206001600160a01b03861680855290835292819020805460ff19169055514281527f6f6a404ffd2cea4713256a4fd9ce99c8cf8cf32d85c2bb8061d1603ff57d50c3910160405180910390a350565b335f90815260208181526040808320815160808101835281548152600182018054845181870281018701909552808552919492938584019390929083018282801561057057602002820191905f5260205f20905b81548152602001906001019080831161055c575b50505091835250506002919091015460ff8082161515602084015261010090910416151560409091015260608101519091506105e55760405162461bcd60e51b815260206004820152601460248201527314995c5d5a5c995b595b9d1cc81b9bdd081cd95d60621b6044820152606401610367565b604051636dc158eb60e01b8152600481018490527f00000000000000000000000000000000000000000000000000000000000000006001600160a01b031690636dc158eb90602401602060405180830381865afa158015610648573d5f803e3d5ffd5b505050506040513d601f19601f8201168201806040525081019061066c9190610e1e565b6106b85760405162461bcd60e51b815260206004820152601d60248201527f496e76616c6964206f72207265766f6b65642063726564656e7469616c0000006044820152606401610367565b6106c0610a76565b845181525f5b600a811080156106e057506106dd6003600d610e61565b81105b1561073957856106f1826001610e7a565b600d811061070157610701610e39565b602002015182610712836001610e7a565b600e811061072257610722610e39565b60200201528061073181610e8d565b9150506106c6565b505f6107476003600d610e61565b90505b600a811015610787575f82610760836001610e7a565b600e811061077057610770610e39565b60200201528061077f81610e8d565b91505061074a565b506101608086015190820152610180808601519082015260016101a0820152604051638d15f88f60e01b81525f907f00000000000000000000000000000000000000000000000000000000000000006001600160a01b031690638d15f88f906107fa908c908c908c908890600401610ecd565b602060405180830381865afa158015610815573d5f803e3d5ffd5b505050506040513d601f19601f820116820180604052508101906108399190610e1e565b9050806108785760405162461bcd60e51b815260206004820152600d60248201526c24b73b30b634b210383937b7b360991b6044820152606401610367565b82518651146108c95760405162461bcd60e51b815260206004820152601860248201527f41676520726571756972656d656e74206d69736d6174636800000000000000006044820152606401610367565b82604001516108d8575f6108db565b60015b60ff1686600b60200201511461093e5760405162461bcd60e51b815260206004820152602260248201527f41636372656469746174696f6e20726571756972656d656e74206d69736d61746044820152610c6d60f31b6064820152608401610367565b84670fffffffffffffff81168088600c6020020151146109a05760405162461bcd60e51b815260206004820152601860248201527f43726564656e7469616c2068617368206d69736d6174636800000000000000006044820152606401610367565b335f8181526001602081815260408084206001600160a01b038c16808652908352818520805460ff1916909417909355848452600282528084208385528252928390208b905582518b8152429181019190915290917f34d1ac3ec20b10ecfbb0bf62b7538be273454c43dd4090afd9882b6b32d10142910160405180910390a35050505050505050505050565b828054828255905f5260205f20908101928215610a66579160200282015b82811115610a66578251825591602001919060010190610a4b565b50610a72929150610a95565b5090565b604051806101c00160405280600e906020820280368337509192915050565b5b80821115610a72575f8155600101610a96565b80356001600160a01b0381168114610abf575f80fd5b919050565b5f8060408385031215610ad5575f80fd5b610ade83610aa9565b9150610aec60208401610aa9565b90509250929050565b5f60208284031215610b05575f80fd5b610b0e82610aa9565b9392505050565b5f60608201858352602060608185015281865180845260808601915082880193505f5b81811015610b5457845183529383019391830191600101610b38565b50508093505050508215156040830152949350505050565b634e487b7160e01b5f52604160045260245ffd5b6040805190810167ffffffffffffffff81118282101715610ba357610ba3610b6c565b60405290565b604051601f8201601f1916810167ffffffffffffffff81118282101715610bd257610bd2610b6c565b604052919050565b8015158114610be7575f80fd5b50565b8035610abf81610bda565b5f805f60608486031215610c07575f80fd5b8335925060208085013567ffffffffffffffff80821115610c26575f80fd5b818701915087601f830112610c39575f80fd5b813581811115610c4b57610c4b610b6c565b8060051b9150610c5c848301610ba9565b818152918301840191848101908a841115610c75575f80fd5b938501935b83851015610c9357843582529385019390850190610c7a565b809750505050505050610ca860408501610bea565b90509250925092565b5f82601f830112610cc0575f80fd5b610cc8610b80565b806040840185811115610cd9575f80fd5b845b81811015610cf3578035845260209384019301610cdb565b509095945050505050565b5f82601f830112610d0d575f80fd5b6040516101a080820182811067ffffffffffffffff82111715610d3257610d32610b6c565b60405283018185821115610d44575f80fd5b845b82811015610d5e578035825260209182019101610d46565b509195945050505050565b5f805f805f806102e08789031215610d7f575f80fd5b610d898888610cb1565b9550604088605f890112610d9b575f80fd5b610da3610b80565b8060c08a018b811115610db4575f80fd5b838b015b81811015610dd957610dca8d82610cb1565b84526020909301928401610db8565b50819850610de78c82610cb1565b975050505050610dfb886101008901610cfe565b92506102a08701359150610e126102c08801610aa9565b90509295509295509295565b5f60208284031215610e2e575f80fd5b8151610b0e81610bda565b634e487b7160e01b5f52603260045260245ffd5b634e487b7160e01b5f52601160045260245ffd5b81810381811115610e7457610e74610e4d565b92915050565b80820180821115610e7457610e74610e4d565b5f60018201610e9e57610e9e610e4d565b5060010190565b805f5b6002811015610ec7578151845260209384019390910190600101610ea8565b50505050565b6102c08101610edc8287610ea5565b6040808301865f5b6002811015610f0b57610ef8838351610ea5565b9183019160209190910190600101610ee4565b50505050610f1c60c0830185610ea5565b6101008201835f5b600e811015610f43578151835260209283019290910190600101610f24565b5050509594505050505056fea2646970667358221220f21a13aad374964440c3f0e327f8d5c6887c0fbea41531846a4ab69a04bd267964736f6c63430008140033","linkReferences":{}},"methodIdentifiers":{"checkAccess(address)":"466a0146","credentialRegistry()":"b948c3d4","getRequirements(address)":"1e0daf7b","hasAccess(address,address)":"1709ef07","protocolRequirements(address)":"390e4914","revokeAccess(address)":"85e68531","setRequirements(uint256,uint256[],bool)":"3ea79fd7","userCredentials(address,address)":"e89e0408","verifyAndGrantAccess(uint256[2],uint256[2][2],uint256[2],uint256[13],bytes32,address)":"b84ec6c2","zkVerifier()":"d6df096d"},"id":23}