{"abi":[{"type":"function","name":"compressProof","inputs":[{"name":"proof","type":"uint256[8]","internalType":"uint256[8]"}],"outputs":[{"name":"compressed","type":"uint256[4]","internalType":"uint256[4]"}],"stateMutability":"view"},{"type":"function","name":"verifyCompressedProof","inputs":[{"name":"compressedProof","type":"uint256[4]","internalType":"uint256[4]"},{"name":"input","type":"uint256[14]","internalType":"uint256[14]"}],"outputs":[],"stateMutability":"view"},{"type":"function","name":"verifyProof","inputs":[{"name":"a","type":"uint256[2]","internalType":"uint256[2]"},{"name":"b","type":"uint256[2][2]","internalType":"uint256[2][2]"},{"name":"c","type":"uint256[2]","internalType":"uint256[2]"},{"name":"publicSignals","type":"uint256[14]","internalType":"uint256[14]"}],"outputs":[{"name":"","type":"bool","internalType":"bool"}],"stateMutability":"view"},{"type":"function","name":"verifyProofGnark","inputs":[{"name":"proof","type":"uint256[8]","internalType":"uint256[8]"},{"name":"input","type":"uint256[14]","internalType":"uint256[14]"}],"outputs":[],"stateMutability":"view"},{"type":"error","name":"ProofInvalid","inputs":[]},{"type":"error","name":"PublicInputNotInField","inputs":[]}],"bytecode":{"object":"0x608060405234801561000f575f80fd5b50611be78061001d5f395ff3fe608060405234801561000f575f80fd5b506004361061004a575f3560e01c806344f636921461004e5780638d15f88f14610077578063e6965b191461009a578063f9edd048146100af575b5f80fd5b61006161005c36600461188c565b6100c2565b60405161006e91906118ae565b60405180910390f35b61008a61008536600461198c565b61011f565b604051901515815260200161006e565b6100ad6100a8366004611a74565b6101d5565b005b6100ad6100bd366004611aa9565b610453565b6100ca611801565b6100dd82358360015b602002013561076d565b81526100fb6060830135604084013560a0850135608086013561085a565b6020830152604082015261011560c08301358360076100d3565b6060820152919050565b5f61012861181f565b85518152602080870151828201528551810151604080840191909152865151606084015286820180518301516080850152515160a0840152855160c08401529085015160e08301525163e6965b1960e01b8152309063e6965b19906101939084908790600401611ae2565b5f6040518083038186803b1580156101a9575f80fd5b505afa9250505080156101ba575060015b6101c7575f9150506101cd565b60019150505b949350505050565b5f806101e083610b33565b915091505f6040516101008682377f176159472d79ec74936045a9869881746d6ca1f53503799f2cd508f80b47d7b06101008201527f16657197526e49d51cc152593c4c2677ae108655f9a23026b87f3a526500fdc96101208201527f161c3be59a17d2224c9ee8010557730853caee13883194f25b63cf81832a340d6101408201527f10419f52d0f29f784841d9649315aa960da28345d34b39c4ad3d9afd8f1e61d86101608201527f2fb4f999ad780bebb52ff6c99809432df77516f0bf1de3306848c4746930bbb36101808201527f0468939753f8ea31103bb968e7da9632955176a06098743cc17c05b40ff954a06101a08201527f083234d7ddec9293e9a13d7f304783c5eeb3bd670d5c46f8729f358b03a0d7806101c08201527f215554771e832fd827195d3ef37b1cf3e9a4b94374a0df933b68751430f059166101e08201527f2812def353246b0e2cc815b2e914992450ee006713e5e78cfb8d640dace8f5a16102008201527f0cce734ab07ea54729c8b50522d996807ec856bf76f5f861a6472df96db4547f61022082015283610240820152826102608201527f011ce099ffad223cf973fc729af13382708cd084bd5c917113f623a41f92c33f6102808201527f22c1f7aa033bf1b5aabdbea98b52acb637b17da5ef49d2fb00180f034a884a786102a08201527f0b35279391c8ad90eae416368cbf6ddcd6cc3c6cdba5971bba002aaccb42bd586102c08201527f275ba576daae31f63f66c9fb785bc92ff64f2281a61ee6be58587dce7d2cc1df6102e08201526020816103008360085afa90511690508061044c57604051631ff3747d60e21b815260040160405180910390fd5b5050505050565b61045b61183e565b5f8061046d85825b60200201356112d0565b90925090505f80808061048860408a013560208b013561136e565b929650909450925090505f8061049f8b6003610463565b915091505f806104ae8c610b33565b8b8d5260208d018b905260408d0189905260608d018a905260808d0187905260a08d0188905260c08d0186905260e08d018590527f176159472d79ec74936045a9869881746d6ca1f53503799f2cd508f80b47d7b06101008e01527f16657197526e49d51cc152593c4c2677ae108655f9a23026b87f3a526500fdc96101208e01527f161c3be59a17d2224c9ee8010557730853caee13883194f25b63cf81832a340d6101408e01527f10419f52d0f29f784841d9649315aa960da28345d34b39c4ad3d9afd8f1e61d86101608e01527f2fb4f999ad780bebb52ff6c99809432df77516f0bf1de3306848c4746930bbb36101808e01527f0468939753f8ea31103bb968e7da9632955176a06098743cc17c05b40ff954a06101a08e01527f083234d7ddec9293e9a13d7f304783c5eeb3bd670d5c46f8729f358b03a0d7806101c08e01527f215554771e832fd827195d3ef37b1cf3e9a4b94374a0df933b68751430f059166101e08e01527f2812def353246b0e2cc815b2e914992450ee006713e5e78cfb8d640dace8f5a16102008e01527f0cce734ab07ea54729c8b50522d996807ec856bf76f5f861a6472df96db4547f6102208e01526102408d018290526102608d018190527f011ce099ffad223cf973fc729af13382708cd084bd5c917113f623a41f92c33f6102808e01527f22c1f7aa033bf1b5aabdbea98b52acb637b17da5ef49d2fb00180f034a884a786102a08e01527f0b35279391c8ad90eae416368cbf6ddcd6cc3c6cdba5971bba002aaccb42bd586102c08e01527f275ba576daae31f63f66c9fb785bc92ff64f2281a61ee6be58587dce7d2cc1df6102e08e015290925090505f61072261185d565b6020816103008f60085afa915081158061073e57508051600114155b1561075c57604051631ff3747d60e21b815260040160405180910390fd5b505050505050505050505050505050565b5f5f80516020611b728339815191528310158061079757505f80516020611b728339815191528210155b156107b557604051631ff3747d60e21b815260040160405180910390fd5b821580156107c1575081155b156107cd57505f610854565b5f6108085f80516020611b7283398151915260035f80516020611b72833981519152875f80516020611b72833981519152898a090908611542565b905080830361081d575050600182901b610854565b610826816115a4565b8303610839575050600182811b17610854565b604051631ff3747d60e21b815260040160405180910390fd5b505b92915050565b5f805f80516020611b728339815191528610158061088557505f80516020611b728339815191528510155b8061089d57505f80516020611b728339815191528410155b806108b557505f80516020611b728339815191528310155b156108d357604051631ff3747d60e21b815260040160405180910390fd5b828486881717175f036108ea57505f905080610b2a565b5f80805f80516020611b7283398151915261091360035f80516020611b72833981519152611b52565b5f80516020611b728339815191528a8c090990505f5f80516020611b728339815191528a5f80516020611b728339815191528c8d090990505f5f80516020611b728339815191528a5f80516020611b728339815191528c8d090990505f80516020611b72833981519152805f80516020611b728339815191528c860984087f2b149d40ceb8aaae81be18991be06ac3b5b4c5e559dbefa33267e6dc24a138e5089450610a015f80516020611b72833981519152805f80516020611b728339815191528e870984087f2fcd3ac2a640a154eb23960892a85a68f031ca0c8344b23a577dcf1052b9e775086115a4565b93505050505f80610a4e5f80516020611b7283398151915280610a2657610a26611b3e565b5f80516020611b728339815191528586095f80516020611b7283398151915287880908611542565b9050610a995f80516020611b728339815191527f183227397098d014dc2822db40c0ac2ecbc0b548b438e5469e10460b6c3e7ea45f80516020611b72833981519152848808096115bc565b15915050610aa8838383611604565b90935091508683148015610abb57508186145b15610ae35780610acb575f610ace565b60025b60ff1660028a901b175f179450879350610b26565b610aec836115a4565b87148015610b015750610afe826115a4565b86145b156108395780610b11575f610b14565b60025b60ff1660028a901b1760011794508793505b5050505b94509492505050565b5f805f60019050604051604081015f7f17279e48c16d29effa6deb27f0acd8a54074bb5146ca5de473fc1060541870c983527f1a2277d98a335f33a9d27f2d55bedbf51cdc83e198f54050c3d097141499288960208401527f110419d3b741e77026188fb576b9fec52c0c31348471f3f7b9311b8507776c8282527f21ef66df78780e1d0509f49c1551c8177e9e20be21ccb271af771b346c15e5ee6020830152863590508060408301525f80516020611b9283398151915281108416935060408260608460075afa8416935060408360808560065afa841693507f1ec3d3b736751e0ba1cb30f9565f300050fafffe8a51c666e414e4f44b132f3782527f178a2ac467029f99222b8d13663e6104f931d2512fae13847af7b6a74bd006846020830152602087013590508060408301525f80516020611b9283398151915281108416935060408260608460075afa8416935060408360808560065afa841693507f029c24a6be8fbf27c391fa285492caf6b17c56c65b50c36b9c6a7bc5121e4b7b82527f2a8bd6fe643e7724efbc027d02b58bfd5fd0522e36dca4dcd7e867d15959a6356020830152604087013590508060408301525f80516020611b9283398151915281108416935060408260608460075afa8416935060408360808560065afa841693507f2960dcc83a51b562dd9136254dac2d72e2b16dde5ee2506cad2f8633226abd9a82527f1e04a20a32d0d494aaada6eb20245da74cc98b424a139baf4e4dbd4822f296056020830152606087013590508060408301525f80516020611b9283398151915281108416935060408260608460075afa8416935060408360808560065afa841693507f26445573d68aea076f08bf9eedd22e8998f3f3d83e341df6285ec741dcf2b62182527f2d9f0df1671dec816beb5aae34e9e011fbd7d2575726bed8f64a138511cf92e96020830152608087013590508060408301525f80516020611b9283398151915281108416935060408260608460075afa8416935060408360808560065afa841693507f13aa7983b2a8a69e7ff463e31a9eae9d8967e84071ddbce5f47d1a9b3b3a675682527f0820c0d175a163ef015079e2a9a211f0960d10e6730976c88b56f151b041ea23602083015260a087013590508060408301525f80516020611b9283398151915281108416935060408260608460075afa8416935060408360808560065afa841693507e3da739270aefb60dd035f9a725fe2ccffbcf270704c0c2cccc054a194e916f82527f26ddc05eb5de56fda88e523df4d3a8a18a097acf479097258aae0ca154a33ee0602083015260c087013590508060408301525f80516020611b9283398151915281108416935060408260608460075afa8416935060408360808560065afa841693507f2ae3f92a917381f221fce88510dd1625f29c5baf44fdd0c7ffe6b7992769921182527f2bbcbcfe786af167309dd35a35e19c6e1340af4404246e0d12d6d05e05c928e1602083015260e087013590508060408301525f80516020611b9283398151915281108416935060408260608460075afa8416935060408360808560065afa841693507f2248ab596ee522ed5815b9d5b55b83b6823dd655c3294eeb37d76cac1beaab6682527f21ce00dd35d013ac99661e47f394b246c4d38fe44046bcd6b62c5472a9d4db17602083015261010087013590508060408301525f80516020611b9283398151915281108416935060408260608460075afa8416935060408360808560065afa841693507f0e76892aa49ff0984f085e2226cacd92a3d3ebd640a5ceb025b69753e25b400582527f2eb447dcfc45fbb2f5e27634322ee230b8aec5dd009ed1a901df7cd05d35ef04602083015261012087013590508060408301525f80516020611b9283398151915281108416935060408260608460075afa8416935060408360808560065afa841693507f208f8d596c770902dbc59f46bfc73dd805ad4e9042723ecca04333637cfc643082527f06a02326305547f85a84951d477ea212764c69bbbd87e1ccd6c74077ac9beb6b602083015261014087013590508060408301525f80516020611b9283398151915281108416935060408260608460075afa8416935060408360808560065afa841693507f1243c3578780c39de1e044d35d9f46f49f2a9af257b6aa3e7397603c3b26019482527f12c0cea11baa1bab52ebeba23e84316261bd7fdee63e62cec5dc4adbb0a579e9602083015261016087013590508060408301525f80516020611b9283398151915281108416935060408260608460075afa8416935060408360808560065afa841693507f0de6c8f6516220878a0ed048417293f3cf776fcd08a65e17ab5d6a81bf63571f82527f28cc720eb30352b663d3bce9f6144acc954f85c1f17b500288261caa98081554602083015261018087013590508060408301525f80516020611b9283398151915281108416935060408260608460075afa8416935060408360808560065afa5f80845260208401526101a088013560408085018290525f80516020611b9283398151915290911091909516169390508160608160075afa831692505060408160808360065afa815160209092015191945090925016806112ca5760405163a54f8e2760e01b815260040160405180910390fd5b50915091565b5f80825f036112e357505f928392509050565b600183811c9250808416145f80516020611b72833981519152831061131b57604051631ff3747d60e21b815260040160405180910390fd5b6113555f80516020611b7283398151915260035f80516020611b72833981519152865f80516020611b728339815191528889090908611542565b915080156112ca57611366826115a4565b915050915091565b5f8080808515801561137e575084155b1561139357505f925082915081905080611539565b600286811c945085935060018088161490808816145f80516020611b72833981519152861015806113d157505f80516020611b728339815191528510155b156113ef57604051631ff3747d60e21b815260040160405180910390fd5b5f5f80516020611b7283398151915261141660035f80516020611b72833981519152611b52565b5f80516020611b72833981519152888a090990505f5f80516020611b72833981519152885f80516020611b728339815191528a8b090990505f5f80516020611b72833981519152885f80516020611b728339815191528a8b090990505f80516020611b72833981519152805f80516020611b728339815191528a860984087f2b149d40ceb8aaae81be18991be06ac3b5b4c5e559dbefa33267e6dc24a138e50896506115045f80516020611b72833981519152805f80516020611b728339815191528c870984087f2fcd3ac2a640a154eb23960892a85a68f031ca0c8344b23a577dcf1052b9e775086115a4565b9550611511878786611604565b9097509550841561153357611525876115a4565b9650611530866115a4565b95505b50505050505b92959194509250565b5f61156d827f0c19139cb84c680a6e14116da060561765e05aa45a1c72a34f082305b61f3f52611740565b9050815f80516020611b728339815191528283091461159f57604051631ff3747d60e21b815260040160405180910390fd5b919050565b5f80516020611b728339815191529081900681030690565b5f806115e8837f0c19139cb84c680a6e14116da060561765e05aa45a1c72a34f082305b61f3f52611740565b9050825f80516020611b72833981519152828309149392505050565b5f80806116335f80516020611b72833981519152808788095f80516020611b72833981519152898a0908611542565b9050831561164757611644816115a4565b90505b6116905f80516020611b728339815191527f183227397098d014dc2822db40c0ac2ecbc0b548b438e5469e10460b6c3e7ea45f80516020611b72833981519152848a0809611542565b92505f80516020611b728339815191526116ba5f80516020611b72833981519152600286096117a3565b860991505f80516020611b728339815191526116e55f80516020611b728339815191528485096115a4565b5f80516020611b72833981519152858609088614158061171957505f80516020611b72833981519152808385096002098514155b1561173757604051631ff3747d60e21b815260040160405180910390fd5b50935093915050565b5f8060405160208152602080820152602060408201528460608201528360808201525f80516020611b7283398151915260a082015260208160c08360055afa9051925090508061085257604051631ff3747d60e21b815260040160405180910390fd5b5f6117ce827f30644e72e131a029b85045b68181585d97816a916871ca8d3c208c16d87cfd45611740565b90505f80516020611b7283398151915281830960011461159f57604051631ff3747d60e21b815260040160405180910390fd5b60405180608001604052806004906020820280368337509192915050565b6040518061010001604052806008906020820280368337509192915050565b6040518061030001604052806018906020820280368337509192915050565b60405180602001604052806001906020820280368337509192915050565b806101008101831015610854575f80fd5b5f610100828403121561189d575f80fd5b6118a7838361187b565b9392505050565b6080810181835f5b60048110156118d55781518352602092830192909101906001016118b6565b50505092915050565b634e487b7160e01b5f52604160045260245ffd5b6040805190810167ffffffffffffffff81118282101715611915576119156118de565b60405290565b6040516101c0810167ffffffffffffffff81118282101715611915576119156118de565b5f82601f83011261194e575f80fd5b6119566118f2565b806040840185811115611967575f80fd5b845b81811015611981578035845260209384019301611969565b509095945050505050565b5f805f806102c08086880312156119a1575f80fd5b6119ab878761193f565b9450604087605f8801126119bd575f80fd5b6119c56118f2565b8060c089018a8111156119d6575f80fd5b838a015b818110156119fb576119ec8c8261193f565b845260209093019284016119da565b50819750611a098b8261193f565b9650505050508661011f870112611a1e575f80fd5b611a2661191b565b908601908088831115611a37575f80fd5b61010088015b83811015611a55578035835260209283019201611a3d565b509598949750929550505050565b806101c08101831015610854575f80fd5b5f806102c08385031215611a86575f80fd5b611a90848461187b565b9150611aa0846101008501611a63565b90509250929050565b5f806102408385031215611abb575f80fd5b6080830184811115611acb575f80fd5b839250611ad88582611a63565b9150509250929050565b6102c0810181845f5b6008811015611b0a578151835260209283019290910190600101611aeb565b5050506101008201835f5b600e811015611b34578151835260209283019290910190600101611b15565b5050509392505050565b634e487b7160e01b5f52601260045260245ffd5b8181038181111561085457634e487b7160e01b5f52601160045260245ffdfe30644e72e131a029b85045b68181585d97816a916871ca8d3c208c16d87cfd4730644e72e131a029b85045b68181585d2833e84879b9709143e1f593f0000001a264697066735822122045a0f752a1cb238a37107c9d78144714e1a58e3dc5722859a4570117f7acb4d564736f6c63430008140033","linkReferences":{}},"methodIdentifiers":{"compressProof(uint256[8])":"44f63692","verifyCompressedProof(uint256[4],uint256[14])":"f9edd048","verifyProof(uint256[2],uint256[2][2],uint256[2],uint256[14])":"8d15f88f","verifyProofGnark(uint256[8],uint256[14])":"e6965b19"},"id":24}